{
    "_format": "hh-sol-artifact-1",
    "contractName": "Dao",
    "sourceName": "contracts/Dao.sol",
    "abi": [
        {
            "inputs": [
                {
                    "internalType": "string",
                    "name": "_tld",
                    "type": "string"
                }
            ],
            "stateMutability": "payable",
            "type": "constructor"
        },
        {
            "inputs": [],
            "name": "AlreadyRegistered",
            "type": "error"
        },
        {
            "inputs": [
                {
                    "internalType": "string",
                    "name": "name",
                    "type": "string"
                }
            ],
            "name": "NameIsLong",
            "type": "error"
        },
        {
            "inputs": [],
            "name": "Unauthorized",
            "type": "error"
        },
        {
            "anonymous": false,
            "inputs": [
                {
                    "indexed": true,
                    "internalType": "address",
                    "name": "owner",
                    "type": "address"
                },
                {
                    "indexed": true,
                    "internalType": "address",
                    "name": "approved",
                    "type": "address"
                },
                {
                    "indexed": true,
                    "internalType": "uint256",
                    "name": "tokenId",
                    "type": "uint256"
                }
            ],
            "name": "Approval",
            "type": "event"
        },
        {
            "anonymous": false,
            "inputs": [
                {
                    "indexed": true,
                    "internalType": "address",
                    "name": "owner",
                    "type": "address"
                },
                {
                    "indexed": true,
                    "internalType": "address",
                    "name": "operator",
                    "type": "address"
                },
                {
                    "indexed": false,
                    "internalType": "bool",
                    "name": "approved",
                    "type": "bool"
                }
            ],
            "name": "ApprovalForAll",
            "type": "event"
        },
        {
            "anonymous": false,
            "inputs": [
                {
                    "indexed": true,
                    "internalType": "address",
                    "name": "from",
                    "type": "address"
                },
                {
                    "indexed": true,
                    "internalType": "address",
                    "name": "to",
                    "type": "address"
                },
                {
                    "indexed": true,
                    "internalType": "uint256",
                    "name": "tokenId",
                    "type": "uint256"
                }
            ],
            "name": "Transfer",
            "type": "event"
        },
        {
            "inputs": [
                {
                    "internalType": "string",
                    "name": "",
                    "type": "string"
                }
            ],
            "name": "Details",
            "outputs": [
                {
                    "internalType": "string",
                    "name": "",
                    "type": "string"
                }
            ],
            "stateMutability": "view",
            "type": "function"
        },
        {
            "inputs": [
                {
                    "internalType": "address",
                    "name": "to",
                    "type": "address"
                },
                {
                    "internalType": "uint256",
                    "name": "tokenId",
                    "type": "uint256"
                }
            ],
            "name": "approve",
            "outputs": [],
            "stateMutability": "nonpayable",
            "type": "function"
        },
        {
            "inputs": [
                {
                    "internalType": "address",
                    "name": "owner",
                    "type": "address"
                }
            ],
            "name": "balanceOf",
            "outputs": [
                {
                    "internalType": "uint256",
                    "name": "",
                    "type": "uint256"
                }
            ],
            "stateMutability": "view",
            "type": "function"
        },
        {
            "inputs": [
                {
                    "internalType": "string",
                    "name": "name",
                    "type": "string"
                }
            ],
            "name": "create",
            "outputs": [],
            "stateMutability": "payable",
            "type": "function"
        },
        {
            "inputs": [
                {
                    "internalType": "string",
                    "name": "name",
                    "type": "string"
                }
            ],
            "name": "getAddress",
            "outputs": [
                {
                    "internalType": "address",
                    "name": "",
                    "type": "address"
                }
            ],
            "stateMutability": "view",
            "type": "function"
        },
        {
            "inputs": [],
            "name": "getAllNames",
            "outputs": [
                {
                    "internalType": "string[]",
                    "name": "",
                    "type": "string[]"
                }
            ],
            "stateMutability": "view",
            "type": "function"
        },
        {
            "inputs": [
                {
                    "internalType": "uint256",
                    "name": "tokenId",
                    "type": "uint256"
                }
            ],
            "name": "getApproved",
            "outputs": [
                {
                    "internalType": "address",
                    "name": "",
                    "type": "address"
                }
            ],
            "stateMutability": "view",
            "type": "function"
        },
        {
            "inputs": [
                {
                    "internalType": "string",
                    "name": "name",
                    "type": "string"
                }
            ],
            "name": "getDetails",
            "outputs": [
                {
                    "internalType": "string",
                    "name": "",
                    "type": "string"
                }
            ],
            "stateMutability": "view",
            "type": "function"
        },
        {
            "inputs": [
                {
                    "internalType": "address",
                    "name": "owner",
                    "type": "address"
                },
                {
                    "internalType": "address",
                    "name": "operator",
                    "type": "address"
                }
            ],
            "name": "isApprovedForAll",
            "outputs": [
                {
                    "internalType": "bool",
                    "name": "",
                    "type": "bool"
                }
            ],
            "stateMutability": "view",
            "type": "function"
        },
        {
            "inputs": [],
            "name": "isOwner",
            "outputs": [
                {
                    "internalType": "bool",
                    "name": "",
                    "type": "bool"
                }
            ],
            "stateMutability": "view",
            "type": "function"
        },
        {
            "inputs": [],
            "name": "name",
            "outputs": [
                {
                    "internalType": "string",
                    "name": "",
                    "type": "string"
                }
            ],
            "stateMutability": "view",
            "type": "function"
        },
        {
            "inputs": [
                {
                    "internalType": "uint256",
                    "name": "",
                    "type": "uint256"
                }
            ],
            "name": "names",
            "outputs": [
                {
                    "internalType": "string",
                    "name": "",
                    "type": "string"
                }
            ],
            "stateMutability": "view",
            "type": "function"
        },
        {
            "inputs": [],
            "name": "owner",
            "outputs": [
                {
                    "internalType": "address payable",
                    "name": "",
                    "type": "address"
                }
            ],
            "stateMutability": "view",
            "type": "function"
        },
        {
            "inputs": [
                {
                    "internalType": "uint256",
                    "name": "tokenId",
                    "type": "uint256"
                }
            ],
            "name": "ownerOf",
            "outputs": [
                {
                    "internalType": "address",
                    "name": "",
                    "type": "address"
                }
            ],
            "stateMutability": "view",
            "type": "function"
        },
        {
            "inputs": [
                {
                    "internalType": "string",
                    "name": "name",
                    "type": "string"
                }
            ],
            "name": "price",
            "outputs": [
                {
                    "internalType": "uint256",
                    "name": "",
                    "type": "uint256"
                }
            ],
            "stateMutability": "pure",
            "type": "function"
        },
        {
            "inputs": [
                {
                    "internalType": "address",
                    "name": "from",
                    "type": "address"
                },
                {
                    "internalType": "address",
                    "name": "to",
                    "type": "address"
                },
                {
                    "internalType": "uint256",
                    "name": "tokenId",
                    "type": "uint256"
                }
            ],
            "name": "safeTransferFrom",
            "outputs": [],
            "stateMutability": "nonpayable",
            "type": "function"
        },
        {
            "inputs": [
                {
                    "internalType": "address",
                    "name": "from",
                    "type": "address"
                },
                {
                    "internalType": "address",
                    "name": "to",
                    "type": "address"
                },
                {
                    "internalType": "uint256",
                    "name": "tokenId",
                    "type": "uint256"
                },
                {
                    "internalType": "bytes",
                    "name": "_data",
                    "type": "bytes"
                }
            ],
            "name": "safeTransferFrom",
            "outputs": [],
            "stateMutability": "nonpayable",
            "type": "function"
        },
        {
            "inputs": [
                {
                    "internalType": "address",
                    "name": "operator",
                    "type": "address"
                },
                {
                    "internalType": "bool",
                    "name": "approved",
                    "type": "bool"
                }
            ],
            "name": "setApprovalForAll",
            "outputs": [],
            "stateMutability": "nonpayable",
            "type": "function"
        },
        {
            "inputs": [
                {
                    "internalType": "string",
                    "name": "name",
                    "type": "string"
                },
                {
                    "internalType": "string",
                    "name": "detail",
                    "type": "string"
                }
            ],
            "name": "setDetails",
            "outputs": [],
            "stateMutability": "nonpayable",
            "type": "function"
        },
        {
            "inputs": [
                {
                    "internalType": "bytes4",
                    "name": "interfaceId",
                    "type": "bytes4"
                }
            ],
            "name": "supportsInterface",
            "outputs": [
                {
                    "internalType": "bool",
                    "name": "",
                    "type": "bool"
                }
            ],
            "stateMutability": "view",
            "type": "function"
        },
        {
            "inputs": [],
            "name": "symbol",
            "outputs": [
                {
                    "internalType": "string",
                    "name": "",
                    "type": "string"
                }
            ],
            "stateMutability": "view",
            "type": "function"
        },
        {
            "inputs": [],
            "name": "tld",
            "outputs": [
                {
                    "internalType": "string",
                    "name": "",
                    "type": "string"
                }
            ],
            "stateMutability": "view",
            "type": "function"
        },
        {
            "inputs": [
                {
                    "internalType": "uint256",
                    "name": "tokenId",
                    "type": "uint256"
                }
            ],
            "name": "tokenURI",
            "outputs": [
                {
                    "internalType": "string",
                    "name": "",
                    "type": "string"
                }
            ],
            "stateMutability": "view",
            "type": "function"
        },
        {
            "inputs": [
                {
                    "internalType": "address",
                    "name": "from",
                    "type": "address"
                },
                {
                    "internalType": "address",
                    "name": "to",
                    "type": "address"
                },
                {
                    "internalType": "uint256",
                    "name": "tokenId",
                    "type": "uint256"
                }
            ],
            "name": "transferFrom",
            "outputs": [],
            "stateMutability": "nonpayable",
            "type": "function"
        },
        {
            "inputs": [
                {
                    "internalType": "string",
                    "name": "name",
                    "type": "string"
                }
            ],
            "name": "valid",
            "outputs": [
                {
                    "internalType": "bool",
                    "name": "",
                    "type": "bool"
                }
            ],
            "stateMutability": "pure",
            "type": "function"
        },
        {
            "inputs": [],
            "name": "withdraw",
            "outputs": [],
            "stateMutability": "nonpayable",
            "type": "function"
        }
    ],
    "bytecode": "0x6080604052604051806108a0016040528061086b81526020016200524861086b91396008908051906020019062000038929190620002c8565b506040518060400160405280600d81526020017f3c2f746578743e3c2f7376673e000000000000000000000000000000000000008152506009908051906020019062000086929190620002c8565b5060405162005ab338038062005ab38339818101604052810190620000ac919062000515565b6040518060400160405280601981526020017f4c6561726e7765623364616f204e616d652053657276696365000000000000008152506040518060400160405280600381526020017f4c4e530000000000000000000000000000000000000000000000000000000000815250816000908051906020019062000130929190620002c8565b50806001908051906020019062000149929190620002c8565b50505033600e60006101000a81548173ffffffffffffffffffffffffffffffffffffffff021916908373ffffffffffffffffffffffffffffffffffffffff16021790555080600a9080519060200190620001a5929190620002c8565b50620001f26040518060400160405280602081526020017f49206a757374206465706c6f7965642064616f206e616d65207365727669636581525082620001f960201b62001ad01760201c565b5062000663565b6200029b828260405160240162000212929190620005c3565b6040516020818303038152906040527f4b5c4277000000000000000000000000000000000000000000000000000000007bffffffffffffffffffffffffffffffffffffffffffffffffffffffff19166020820180517bffffffffffffffffffffffffffffffffffffffffffffffffffffffff83818316178352505050506200029f60201b60201c565b5050565b60008151905060006a636f6e736f6c652e6c6f679050602083016000808483855afa5050505050565b828054620002d6906200062d565b90600052602060002090601f016020900481019282620002fa576000855562000346565b82601f106200031557805160ff191683800117855562000346565b8280016001018555821562000346579182015b828111156200034557825182559160200191906001019062000328565b5b50905062000355919062000359565b5090565b5b80821115620003745760008160009055506001016200035a565b5090565b6000604051905090565b600080fd5b600080fd5b600080fd5b600080fd5b6000601f19601f8301169050919050565b7f4e487b7100000000000000000000000000000000000000000000000000000000600052604160045260246000fd5b620003e18262000396565b810181811067ffffffffffffffff82111715620004035762000402620003a7565b5b80604052505050565b60006200041862000378565b9050620004268282620003d6565b919050565b600067ffffffffffffffff821115620004495762000448620003a7565b5b620004548262000396565b9050602081019050919050565b60005b838110156200048157808201518184015260208101905062000464565b8381111562000491576000848401525b50505050565b6000620004ae620004a8846200042b565b6200040c565b905082815260208101848484011115620004cd57620004cc62000391565b5b620004da84828562000461565b509392505050565b600082601f830112620004fa57620004f96200038c565b5b81516200050c84826020860162000497565b91505092915050565b6000602082840312156200052e576200052d62000382565b5b600082015167ffffffffffffffff8111156200054f576200054e62000387565b5b6200055d84828501620004e2565b91505092915050565b600081519050919050565b600082825260208201905092915050565b60006200058f8262000566565b6200059b818562000571565b9350620005ad81856020860162000461565b620005b88162000396565b840191505092915050565b60006040820190508181036000830152620005df818562000582565b90508181036020830152620005f5818462000582565b90509392505050565b7f4e487b7100000000000000000000000000000000000000000000000000000000600052602260045260246000fd5b600060028204905060018216806200064657607f821691505b602082108114156200065d576200065c620005fe565b5b50919050565b614bd580620006736000396000f3fe6080604052600436106101815760003560e01c80638da5cb5b116100d1578063b7b090ee1161008a578063c87b56dd11610064578063c87b56dd146105ab578063e985e9c5146105e8578063fb825e5f14610625578063fe2c61981461065057610181565b8063b7b090ee1461051c578063b88d4fde14610545578063bf40fac11461056e57610181565b80638da5cb5b146104195780638f32d59b1461044457806395d89b411461046f5780639791c0971461049a578063a22cb465146104d7578063b6a46b3b1461050057610181565b80632d5514321161013e5780634622ab03116101185780634622ab031461032557806349db7f1c146103625780636352211e1461039f57806370a08231146103dc57610181565b80632d551432146102ba5780633ccfd60b146102e557806342842e0e146102fc57610181565b806301ffc9a71461018657806306fdde03146101c3578063081812fc146101ee578063095ea7b31461022b5780631328fd8f1461025457806323b872dd14610291575b600080fd5b34801561019257600080fd5b506101ad60048036038101906101a89190612fb5565b61068d565b6040516101ba9190612ffd565b60405180910390f35b3480156101cf57600080fd5b506101d861076f565b6040516101e591906130b1565b60405180910390f35b3480156101fa57600080fd5b5061021560048036038101906102109190613109565b610801565b6040516102229190613177565b60405180910390f35b34801561023757600080fd5b50610252600480360381019061024d91906131be565b610886565b005b34801561026057600080fd5b5061027b60048036038101906102769190613263565b61099e565b60405161028891906130b1565b60405180910390f35b34801561029d57600080fd5b506102b860048036038101906102b391906132b0565b610a51565b005b3480156102c657600080fd5b506102cf610ab1565b6040516102dc91906130b1565b60405180910390f35b3480156102f157600080fd5b506102fa610b3f565b005b34801561030857600080fd5b50610323600480360381019061031e91906132b0565b610c27565b005b34801561033157600080fd5b5061034c60048036038101906103479190613109565b610c47565b60405161035991906130b1565b60405180910390f35b34801561036e57600080fd5b5061038960048036038101906103849190613433565b610ce7565b60405161039691906130b1565b60405180910390f35b3480156103ab57600080fd5b506103c660048036038101906103c19190613109565b610d9d565b6040516103d39190613177565b60405180910390f35b3480156103e857600080fd5b5061040360048036038101906103fe919061347c565b610e4f565b60405161041091906134b8565b60405180910390f35b34801561042557600080fd5b5061042e610f07565b60405161043b91906134f4565b60405180910390f35b34801561045057600080fd5b50610459610f2d565b6040516104669190612ffd565b60405180910390f35b34801561047b57600080fd5b50610484610f85565b60405161049191906130b1565b60405180910390f35b3480156104a657600080fd5b506104c160048036038101906104bc9190613263565b611017565b6040516104ce9190612ffd565b60405180910390f35b3480156104e357600080fd5b506104fe60048036038101906104f9919061353b565b6110cb565b005b61051a60048036038101906105159190613263565b6110e1565b005b34801561052857600080fd5b50610543600480360381019061053e919061357b565b6114de565b005b34801561055157600080fd5b5061056c6004803603810190610567919061369d565b6115b9565b005b34801561057a57600080fd5b5061059560048036038101906105909190613263565b61161b565b6040516105a29190613177565b60405180910390f35b3480156105b757600080fd5b506105d260048036038101906105cd9190613109565b611666565b6040516105df91906130b1565b60405180910390f35b3480156105f457600080fd5b5061060f600480360381019061060a9190613720565b6117b8565b60405161061c9190612ffd565b60405180910390f35b34801561063157600080fd5b5061063a61184c565b604051610647919061386c565b60405180910390f35b34801561065c57600080fd5b5061067760048036038101906106729190613263565b611a2a565b60405161068491906134b8565b60405180910390f35b60007f80ac58cd000000000000000000000000000000000000000000000000000000007bffffffffffffffffffffffffffffffffffffffffffffffffffffffff1916827bffffffffffffffffffffffffffffffffffffffffffffffffffffffff1916148061075857507f5b5e139f000000000000000000000000000000000000000000000000000000007bffffffffffffffffffffffffffffffffffffffffffffffffffffffff1916827bffffffffffffffffffffffffffffffffffffffffffffffffffffffff1916145b80610768575061076782611b6c565b5b9050919050565b60606000805461077e906138bd565b80601f01602080910402602001604051908101604052809291908181526020018280546107aa906138bd565b80156107f75780601f106107cc576101008083540402835291602001916107f7565b820191906000526020600020905b8154815290600101906020018083116107da57829003601f168201915b5050505050905090565b600061080c82611bd6565b61084b576040517f08c379a000000000000000000000000000000000000000000000000000000000815260040161084290613961565b60405180910390fd5b6004600083815260200190815260200160002060009054906101000a900473ffffffffffffffffffffffffffffffffffffffff169050919050565b600061089182610d9d565b90508073ffffffffffffffffffffffffffffffffffffffff168373ffffffffffffffffffffffffffffffffffffffff161415610902576040517f08c379a00000000000000000000000000000000000000000000000000000000081526004016108f9906139f3565b60405180910390fd5b8073ffffffffffffffffffffffffffffffffffffffff16610921611c42565b73ffffffffffffffffffffffffffffffffffffffff161480610950575061094f8161094a611c42565b6117b8565b5b61098f576040517f08c379a000000000000000000000000000000000000000000000000000000000815260040161098690613a85565b60405180910390fd5b6109998383611c4a565b505050565b6060600c83836040516109b2929190613ad5565b908152602001604051809103902080546109cb906138bd565b80601f01602080910402602001604051908101604052809291908181526020018280546109f7906138bd565b8015610a445780601f10610a1957610100808354040283529160200191610a44565b820191906000526020600020905b815481529060010190602001808311610a2757829003601f168201915b5050505050905092915050565b610a62610a5c611c42565b82611d03565b610aa1576040517f08c379a0000000000000000000000000000000000000000000000000000000008152600401610a9890613b60565b60405180910390fd5b610aac838383611de1565b505050565b600a8054610abe906138bd565b80601f0160208091040260200160405190810160405280929190818152602001828054610aea906138bd565b8015610b375780601f10610b0c57610100808354040283529160200191610b37565b820191906000526020600020905b815481529060010190602001808311610b1a57829003601f168201915b505050505081565b610b47610f2d565b610b5057600080fd5b60004790506000600e60009054906101000a900473ffffffffffffffffffffffffffffffffffffffff1673ffffffffffffffffffffffffffffffffffffffff1682604051610b9d90613bb1565b60006040518083038185875af1925050503d8060008114610bda576040519150601f19603f3d011682016040523d82523d6000602084013e610bdf565b606091505b5050905080610c23576040517f08c379a0000000000000000000000000000000000000000000000000000000008152600401610c1a90613c12565b60405180910390fd5b5050565b610c42838383604051806020016040528060008152506115b9565b505050565b600d6020528060005260406000206000915090508054610c66906138bd565b80601f0160208091040260200160405190810160405280929190818152602001828054610c92906138bd565b8015610cdf5780601f10610cb457610100808354040283529160200191610cdf565b820191906000526020600020905b815481529060010190602001808311610cc257829003601f168201915b505050505081565b600c818051602081018201805184825260208301602085012081835280955050505050506000915090508054610d1c906138bd565b80601f0160208091040260200160405190810160405280929190818152602001828054610d48906138bd565b8015610d955780601f10610d6a57610100808354040283529160200191610d95565b820191906000526020600020905b815481529060010190602001808311610d7857829003601f168201915b505050505081565b6000806002600084815260200190815260200160002060009054906101000a900473ffffffffffffffffffffffffffffffffffffffff169050600073ffffffffffffffffffffffffffffffffffffffff168173ffffffffffffffffffffffffffffffffffffffff161415610e46576040517f08c379a0000000000000000000000000000000000000000000000000000000008152600401610e3d90613ca4565b60405180910390fd5b80915050919050565b60008073ffffffffffffffffffffffffffffffffffffffff168273ffffffffffffffffffffffffffffffffffffffff161415610ec0576040517f08c379a0000000000000000000000000000000000000000000000000000000008152600401610eb790613d36565b60405180910390fd5b600360008373ffffffffffffffffffffffffffffffffffffffff1673ffffffffffffffffffffffffffffffffffffffff168152602001908152602001600020549050919050565b600e60009054906101000a900473ffffffffffffffffffffffffffffffffffffffff1681565b6000600e60009054906101000a900473ffffffffffffffffffffffffffffffffffffffff1673ffffffffffffffffffffffffffffffffffffffff163373ffffffffffffffffffffffffffffffffffffffff1614905090565b606060018054610f94906138bd565b80601f0160208091040260200160405190810160405280929190818152602001828054610fc0906138bd565b801561100d5780601f10610fe25761010080835404028352916020019161100d565b820191906000526020600020905b815481529060010190602001808311610ff057829003601f168201915b5050505050905090565b6000600361106884848080601f016020809104026020016040519081016040528093929190818152602001838380828437600081840152601f19601f82011690508083019250505050505050612048565b101580156110c35750600a6110c084848080601f016020809104026020016040519081016040528093929190818152602001838380828437600081840152601f19601f82011690508083019250505050505050612048565b11155b905092915050565b6110dd6110d6611c42565b83836121fd565b5050565b600073ffffffffffffffffffffffffffffffffffffffff16600b838360405161110b929190613ad5565b908152602001604051809103902060009054906101000a900473ffffffffffffffffffffffffffffffffffffffff1673ffffffffffffffffffffffffffffffffffffffff1614611187576040517f3a81d6fc00000000000000000000000000000000000000000000000000000000815260040160405180910390fd5b6111918282611017565b6111d45781816040517f4528d4790000000000000000000000000000000000000000000000000000000081526004016111cb929190613d83565b60405180910390fd5b60006111e08383611a2a565b905080341015611225576040517f08c379a000000000000000000000000000000000000000000000000000000000815260040161121c90613e19565b60405180910390fd5b60008383600a60405160200161123d93929190613f19565b60405160208183030381529060405290506000600882600960405160200161126793929190613f7b565b60405160208183030381529060405290506000611284600761236a565b905060006112d587878080601f016020809104026020016040519081016040528093929190818152602001838380828437600081840152601f19601f82011690508083019250505050505050612048565b905060006112e282612378565b90506113d6604051806060016040528060318152602001614b2f6031913989898080601f016020809104026020016040519081016040528093929190818152602001838380828437600081840152601f19601f82011690508083019250505050505050600a8054611352906138bd565b80601f016020809104026020016040519081016040528092919081815260200182805461137e906138bd565b80156113cb5780601f106113a0576101008083540402835291602001916113cb565b820191906000526020600020905b8154815290600101906020018083116113ae57829003601f168201915b5050505050866124d9565b600061140c866113e58761257b565b846040516020016113f893929190614128565b60405160208183030381529060405261257b565b905060008160405160200161142191906141d1565b604051602081830303815290604052905061143c3386612713565b6114468582612731565b33600b8b8b604051611459929190613ad5565b908152602001604051809103902060006101000a81548173ffffffffffffffffffffffffffffffffffffffff021916908373ffffffffffffffffffffffffffffffffffffffff1602179055508989600d600088815260200190815260200160002091906114c7929190612e20565b506114d260076127a5565b50505050505050505050565b600b84846040516114f0929190613ad5565b908152602001604051809103902060009054906101000a900473ffffffffffffffffffffffffffffffffffffffff1673ffffffffffffffffffffffffffffffffffffffff163373ffffffffffffffffffffffffffffffffffffffff1614611583576040517f82b4290000000000000000000000000000000000000000000000000000000000815260040160405180910390fd5b8181600c8686604051611597929190613ad5565b908152602001604051809103902091906115b2929190612e20565b5050505050565b6115ca6115c4611c42565b83611d03565b611609576040517f08c379a000000000000000000000000000000000000000000000000000000000815260040161160090613b60565b60405180910390fd5b611615848484846127bb565b50505050565b6000600b838360405161162f929190613ad5565b908152602001604051809103902060009054906101000a900473ffffffffffffffffffffffffffffffffffffffff16905092915050565b606061167182611bd6565b6116b0576040517f08c379a00000000000000000000000000000000000000000000000000000000081526004016116a790614265565b60405180910390fd5b60006006600084815260200190815260200160002080546116d0906138bd565b80601f01602080910402602001604051908101604052809291908181526020018280546116fc906138bd565b80156117495780601f1061171e57610100808354040283529160200191611749565b820191906000526020600020905b81548152906001019060200180831161172c57829003601f168201915b50505050509050600061175a612817565b90506000815114156117705781925050506117b3565b6000825111156117a557808260405160200161178d929190614285565b604051602081830303815290604052925050506117b3565b6117ae8461282e565b925050505b919050565b6000600560008473ffffffffffffffffffffffffffffffffffffffff1673ffffffffffffffffffffffffffffffffffffffff16815260200190815260200160002060008373ffffffffffffffffffffffffffffffffffffffff1673ffffffffffffffffffffffffffffffffffffffff16815260200190815260200160002060009054906101000a900460ff16905092915050565b606061188c6040518060400160405280601f81526020017f47657474696e6720616c6c206e616d65732066726f6d20636f6e7472616374008152506128d5565b6000611898600761236a565b67ffffffffffffffff8111156118b1576118b0613308565b5b6040519080825280602002602001820160405280156118e457816020015b60608152602001906001900390816118cf5790505b50905060005b6118f4600761236a565b811015611a2257600d60008281526020019081526020016000208054611919906138bd565b80601f0160208091040260200160405190810160405280929190818152602001828054611945906138bd565b80156119925780601f1061196757610100808354040283529160200191611992565b820191906000526020600020905b81548152906001019060200180831161197557829003601f168201915b50505050508282815181106119aa576119a96142a9565b5b6020026020010181905250611a0f6040518060400160405280601781526020017f4e616d6520666f7220746f6b656e20256420697320257300000000000000000081525082848481518110611a0257611a016142a9565b5b602002602001015161296e565b8080611a1a90614307565b9150506118ea565b508091505090565b600080611a7a84848080601f016020809104026020016040519081016040528093929190818152602001838380828437600081840152601f19601f82011690508083019250505050505050612048565b905060008111611a8957600080fd5b6003811415611aa357670429d069189e0000915050611aca565b6005811415611abd576706f05b59d3b20000915050611aca565b6702c68af0bb1400009150505b92915050565b611b688282604051602401611ae6929190614350565b6040516020818303038152906040527f4b5c4277000000000000000000000000000000000000000000000000000000007bffffffffffffffffffffffffffffffffffffffffffffffffffffffff19166020820180517bffffffffffffffffffffffffffffffffffffffffffffffffffffffff8381831617835250505050612a0d565b5050565b60007f01ffc9a7000000000000000000000000000000000000000000000000000000007bffffffffffffffffffffffffffffffffffffffffffffffffffffffff1916827bffffffffffffffffffffffffffffffffffffffffffffffffffffffff1916149050919050565b60008073ffffffffffffffffffffffffffffffffffffffff166002600084815260200190815260200160002060009054906101000a900473ffffffffffffffffffffffffffffffffffffffff1673ffffffffffffffffffffffffffffffffffffffff1614159050919050565b600033905090565b816004600083815260200190815260200160002060006101000a81548173ffffffffffffffffffffffffffffffffffffffff021916908373ffffffffffffffffffffffffffffffffffffffff160217905550808273ffffffffffffffffffffffffffffffffffffffff16611cbd83610d9d565b73ffffffffffffffffffffffffffffffffffffffff167f8c5be1e5ebec7d5bd14f71427d1e84f3dd0314c0f7b2291e5b200ac8c7c3b92560405160405180910390a45050565b6000611d0e82611bd6565b611d4d576040517f08c379a0000000000000000000000000000000000000000000000000000000008152600401611d44906143f9565b60405180910390fd5b6000611d5883610d9d565b90508073ffffffffffffffffffffffffffffffffffffffff168473ffffffffffffffffffffffffffffffffffffffff161480611dc757508373ffffffffffffffffffffffffffffffffffffffff16611daf84610801565b73ffffffffffffffffffffffffffffffffffffffff16145b80611dd85750611dd781856117b8565b5b91505092915050565b8273ffffffffffffffffffffffffffffffffffffffff16611e0182610d9d565b73ffffffffffffffffffffffffffffffffffffffff1614611e57576040517f08c379a0000000000000000000000000000000000000000000000000000000008152600401611e4e9061448b565b60405180910390fd5b600073ffffffffffffffffffffffffffffffffffffffff168273ffffffffffffffffffffffffffffffffffffffff161415611ec7576040517f08c379a0000000000000000000000000000000000000000000000000000000008152600401611ebe9061451d565b60405180910390fd5b611ed2838383612a36565b611edd600082611c4a565b6001600360008573ffffffffffffffffffffffffffffffffffffffff1673ffffffffffffffffffffffffffffffffffffffff1681526020019081526020016000206000828254611f2d919061453d565b925050819055506001600360008473ffffffffffffffffffffffffffffffffffffffff1673ffffffffffffffffffffffffffffffffffffffff1681526020019081526020016000206000828254611f849190614571565b92505081905550816002600083815260200190815260200160002060006101000a81548173ffffffffffffffffffffffffffffffffffffffff021916908373ffffffffffffffffffffffffffffffffffffffff160217905550808273ffffffffffffffffffffffffffffffffffffffff168473ffffffffffffffffffffffffffffffffffffffff167fddf252ad1be2c89b69c2b068fc378daa952ba7f163c4a11628f55a4df523b3ef60405160405180910390a4612043838383612a3b565b505050565b60008060008084519050600092505b808210156121f2576000858381518110612074576120736142a9565b5b602001015160f81c60f81b9050608060f81b817effffffffffffffffffffffffffffffffffffffffffffffffffffffffffffff191610156120c3576001836120bc9190614571565b92506121de565b60e060f81b817effffffffffffffffffffffffffffffffffffffffffffffffffffffffffffff19161015612105576002836120fe9190614571565b92506121dd565b60f060f81b817effffffffffffffffffffffffffffffffffffffffffffffffffffffffffffff19161015612147576003836121409190614571565b92506121dc565b60f8801b817effffffffffffffffffffffffffffffffffffffffffffffffffffffffffffff19161015612188576004836121819190614571565b92506121db565b60fc60f81b817effffffffffffffffffffffffffffffffffffffffffffffffffffffffffffff191610156121ca576005836121c39190614571565b92506121da565b6006836121d79190614571565b92505b5b5b5b5b5082806121ea90614307565b935050612057565b829350505050919050565b8173ffffffffffffffffffffffffffffffffffffffff168373ffffffffffffffffffffffffffffffffffffffff16141561226c576040517f08c379a000000000000000000000000000000000000000000000000000000000815260040161226390614613565b60405180910390fd5b80600560008573ffffffffffffffffffffffffffffffffffffffff1673ffffffffffffffffffffffffffffffffffffffff16815260200190815260200160002060008473ffffffffffffffffffffffffffffffffffffffff1673ffffffffffffffffffffffffffffffffffffffff16815260200190815260200160002060006101000a81548160ff0219169083151502179055508173ffffffffffffffffffffffffffffffffffffffff168373ffffffffffffffffffffffffffffffffffffffff167f17307eab39ab6107e8899845ad3d59bd9653f200f220920489ca2b5937696c318360405161235d9190612ffd565b60405180910390a3505050565b600081600001549050919050565b606060008214156123c0576040518060400160405280600181526020017f300000000000000000000000000000000000000000000000000000000000000081525090506124d4565b600082905060005b600082146123f25780806123db90614307565b915050600a826123eb9190614662565b91506123c8565b60008167ffffffffffffffff81111561240e5761240d613308565b5b6040519080825280601f01601f1916602001820160405280156124405781602001600182028036833780820191505090505b5090505b600085146124cd57600182612459919061453d565b9150600a856124689190614693565b60306124749190614571565b60f81b81838151811061248a576124896142a9565b5b60200101907effffffffffffffffffffffffffffffffffffffffffffffffffffffffffffff1916908160001a905350600a856124c69190614662565b9450612444565b8093505050505b919050565b612575848484846040516024016124f394939291906146c4565b6040516020818303038152906040527f9fd009f5000000000000000000000000000000000000000000000000000000007bffffffffffffffffffffffffffffffffffffffffffffffffffffffff19166020820180517bffffffffffffffffffffffffffffffffffffffffffffffffffffffff8381831617835250505050612a0d565b50505050565b606060008251905060008114156125a4576040518060200160405280600081525091505061270e565b600060036002836125b59190614571565b6125bf9190614662565b60046125cb919061471e565b905060006020826125dc9190614571565b67ffffffffffffffff8111156125f5576125f4613308565b5b6040519080825280601f01601f1916602001820160405280156126275781602001600182028036833780820191505090505b5090506000604051806060016040528060408152602001614b60604091399050600181016020830160005b868110156126cb5760038101905062ffffff818a015116603f8160121c168401518060081b905060ff603f83600c1c1686015116810190508060081b905060ff603f8360061c1686015116810190508060081b905060ff603f831686015116810190508060e01b90508084526004840193505050612652565b5060038606600181146126e557600281146126f557612700565b613d3d60f01b6002830352612700565b603d60f81b60018303525b508484525050819450505050505b919050565b61272d828260405180602001604052806000815250612a40565b5050565b61273a82611bd6565b612779576040517f08c379a0000000000000000000000000000000000000000000000000000000008152600401612770906147ea565b60405180910390fd5b806006600084815260200190815260200160002090805190602001906127a0929190612ea6565b505050565b6001816000016000828254019250508190555050565b6127c6848484611de1565b6127d284848484612a9b565b612811576040517f08c379a00000000000000000000000000000000000000000000000000000000081526004016128089061487c565b60405180910390fd5b50505050565b606060405180602001604052806000815250905090565b606061283982611bd6565b612878576040517f08c379a000000000000000000000000000000000000000000000000000000000815260040161286f9061490e565b60405180910390fd5b6000612882612817565b905060008151116128a257604051806020016040528060008152506128cd565b806128ac84612378565b6040516020016128bd929190614285565b6040516020818303038152906040525b915050919050565b61296b816040516024016128e991906130b1565b6040516020818303038152906040527f41304fac000000000000000000000000000000000000000000000000000000007bffffffffffffffffffffffffffffffffffffffffffffffffffffffff19166020820180517bffffffffffffffffffffffffffffffffffffffffffffffffffffffff8381831617835250505050612a0d565b50565b612a088383836040516024016129869392919061492e565b6040516020818303038152906040527fa3f5c739000000000000000000000000000000000000000000000000000000007bffffffffffffffffffffffffffffffffffffffffffffffffffffffff19166020820180517bffffffffffffffffffffffffffffffffffffffffffffffffffffffff8381831617835250505050612a0d565b505050565b60008151905060006a636f6e736f6c652e6c6f679050602083016000808483855afa5050505050565b505050565b505050565b612a4a8383612c23565b612a576000848484612a9b565b612a96576040517f08c379a0000000000000000000000000000000000000000000000000000000008152600401612a8d9061487c565b60405180910390fd5b505050565b6000612abc8473ffffffffffffffffffffffffffffffffffffffff16612dfd565b15612c16578373ffffffffffffffffffffffffffffffffffffffff1663150b7a02612ae5611c42565b8786866040518563ffffffff1660e01b8152600401612b0794939291906149c8565b6020604051808303816000875af1925050508015612b4357506040513d601f19601f82011682018060405250810190612b409190614a29565b60015b612bc6573d8060008114612b73576040519150601f19603f3d011682016040523d82523d6000602084013e612b78565b606091505b50600081511415612bbe576040517f08c379a0000000000000000000000000000000000000000000000000000000008152600401612bb59061487c565b60405180910390fd5b805181602001fd5b63150b7a0260e01b7bffffffffffffffffffffffffffffffffffffffffffffffffffffffff1916817bffffffffffffffffffffffffffffffffffffffffffffffffffffffff191614915050612c1b565b600190505b949350505050565b600073ffffffffffffffffffffffffffffffffffffffff168273ffffffffffffffffffffffffffffffffffffffff161415612c93576040517f08c379a0000000000000000000000000000000000000000000000000000000008152600401612c8a90614aa2565b60405180910390fd5b612c9c81611bd6565b15612cdc576040517f08c379a0000000000000000000000000000000000000000000000000000000008152600401612cd390614b0e565b60405180910390fd5b612ce860008383612a36565b6001600360008473ffffffffffffffffffffffffffffffffffffffff1673ffffffffffffffffffffffffffffffffffffffff1681526020019081526020016000206000828254612d389190614571565b92505081905550816002600083815260200190815260200160002060006101000a81548173ffffffffffffffffffffffffffffffffffffffff021916908373ffffffffffffffffffffffffffffffffffffffff160217905550808273ffffffffffffffffffffffffffffffffffffffff16600073ffffffffffffffffffffffffffffffffffffffff167fddf252ad1be2c89b69c2b068fc378daa952ba7f163c4a11628f55a4df523b3ef60405160405180910390a4612df960008383612a3b565b5050565b6000808273ffffffffffffffffffffffffffffffffffffffff163b119050919050565b828054612e2c906138bd565b90600052602060002090601f016020900481019282612e4e5760008555612e95565b82601f10612e6757803560ff1916838001178555612e95565b82800160010185558215612e95579182015b82811115612e94578235825591602001919060010190612e79565b5b509050612ea29190612f2c565b5090565b828054612eb2906138bd565b90600052602060002090601f016020900481019282612ed45760008555612f1b565b82601f10612eed57805160ff1916838001178555612f1b565b82800160010185558215612f1b579182015b82811115612f1a578251825591602001919060010190612eff565b5b509050612f289190612f2c565b5090565b5b80821115612f45576000816000905550600101612f2d565b5090565b6000604051905090565b600080fd5b600080fd5b60007fffffffff0000000000000000000000000000000000000000000000000000000082169050919050565b612f9281612f5d565b8114612f9d57600080fd5b50565b600081359050612faf81612f89565b92915050565b600060208284031215612fcb57612fca612f53565b5b6000612fd984828501612fa0565b91505092915050565b60008115159050919050565b612ff781612fe2565b82525050565b60006020820190506130126000830184612fee565b92915050565b600081519050919050565b600082825260208201905092915050565b60005b83811015613052578082015181840152602081019050613037565b83811115613061576000848401525b50505050565b6000601f19601f8301169050919050565b600061308382613018565b61308d8185613023565b935061309d818560208601613034565b6130a681613067565b840191505092915050565b600060208201905081810360008301526130cb8184613078565b905092915050565b6000819050919050565b6130e6816130d3565b81146130f157600080fd5b50565b600081359050613103816130dd565b92915050565b60006020828403121561311f5761311e612f53565b5b600061312d848285016130f4565b91505092915050565b600073ffffffffffffffffffffffffffffffffffffffff82169050919050565b600061316182613136565b9050919050565b61317181613156565b82525050565b600060208201905061318c6000830184613168565b92915050565b61319b81613156565b81146131a657600080fd5b50565b6000813590506131b881613192565b92915050565b600080604083850312156131d5576131d4612f53565b5b60006131e3858286016131a9565b92505060206131f4858286016130f4565b9150509250929050565b600080fd5b600080fd5b600080fd5b60008083601f840112613223576132226131fe565b5b8235905067ffffffffffffffff8111156132405761323f613203565b5b60208301915083600182028301111561325c5761325b613208565b5b9250929050565b6000806020838503121561327a57613279612f53565b5b600083013567ffffffffffffffff81111561329857613297612f58565b5b6132a48582860161320d565b92509250509250929050565b6000806000606084860312156132c9576132c8612f53565b5b60006132d7868287016131a9565b93505060206132e8868287016131a9565b92505060406132f9868287016130f4565b9150509250925092565b600080fd5b7f4e487b7100000000000000000000000000000000000000000000000000000000600052604160045260246000fd5b61334082613067565b810181811067ffffffffffffffff8211171561335f5761335e613308565b5b80604052505050565b6000613372612f49565b905061337e8282613337565b919050565b600067ffffffffffffffff82111561339e5761339d613308565b5b6133a782613067565b9050602081019050919050565b82818337600083830152505050565b60006133d66133d184613383565b613368565b9050828152602081018484840111156133f2576133f1613303565b5b6133fd8482856133b4565b509392505050565b600082601f83011261341a576134196131fe565b5b813561342a8482602086016133c3565b91505092915050565b60006020828403121561344957613448612f53565b5b600082013567ffffffffffffffff81111561346757613466612f58565b5b61347384828501613405565b91505092915050565b60006020828403121561349257613491612f53565b5b60006134a0848285016131a9565b91505092915050565b6134b2816130d3565b82525050565b60006020820190506134cd60008301846134a9565b92915050565b60006134de82613136565b9050919050565b6134ee816134d3565b82525050565b600060208201905061350960008301846134e5565b92915050565b61351881612fe2565b811461352357600080fd5b50565b6000813590506135358161350f565b92915050565b6000806040838503121561355257613551612f53565b5b6000613560858286016131a9565b925050602061357185828601613526565b9150509250929050565b6000806000806040858703121561359557613594612f53565b5b600085013567ffffffffffffffff8111156135b3576135b2612f58565b5b6135bf8782880161320d565b9450945050602085013567ffffffffffffffff8111156135e2576135e1612f58565b5b6135ee8782880161320d565b925092505092959194509250565b600067ffffffffffffffff82111561361757613616613308565b5b61362082613067565b9050602081019050919050565b600061364061363b846135fc565b613368565b90508281526020810184848401111561365c5761365b613303565b5b6136678482856133b4565b509392505050565b600082601f830112613684576136836131fe565b5b813561369484826020860161362d565b91505092915050565b600080600080608085870312156136b7576136b6612f53565b5b60006136c5878288016131a9565b94505060206136d6878288016131a9565b93505060406136e7878288016130f4565b925050606085013567ffffffffffffffff81111561370857613707612f58565b5b6137148782880161366f565b91505092959194509250565b6000806040838503121561373757613736612f53565b5b6000613745858286016131a9565b9250506020613756858286016131a9565b9150509250929050565b600081519050919050565b600082825260208201905092915050565b6000819050602082019050919050565b600082825260208201905092915050565b60006137a882613018565b6137b2818561378c565b93506137c2818560208601613034565b6137cb81613067565b840191505092915050565b60006137e2838361379d565b905092915050565b6000602082019050919050565b600061380282613760565b61380c818561376b565b93508360208202850161381e8561377c565b8060005b8581101561385a578484038952815161383b85826137d6565b9450613846836137ea565b925060208a01995050600181019050613822565b50829750879550505050505092915050565b6000602082019050818103600083015261388681846137f7565b905092915050565b7f4e487b7100000000000000000000000000000000000000000000000000000000600052602260045260246000fd5b600060028204905060018216806138d557607f821691505b602082108114156138e9576138e861388e565b5b50919050565b7f4552433732313a20617070726f76656420717565727920666f72206e6f6e657860008201527f697374656e7420746f6b656e0000000000000000000000000000000000000000602082015250565b600061394b602c83613023565b9150613956826138ef565b604082019050919050565b6000602082019050818103600083015261397a8161393e565b9050919050565b7f4552433732313a20617070726f76616c20746f2063757272656e74206f776e6560008201527f7200000000000000000000000000000000000000000000000000000000000000602082015250565b60006139dd602183613023565b91506139e882613981565b604082019050919050565b60006020820190508181036000830152613a0c816139d0565b9050919050565b7f4552433732313a20617070726f76652063616c6c6572206973206e6f74206f7760008201527f6e6572206e6f7220617070726f76656420666f7220616c6c0000000000000000602082015250565b6000613a6f603883613023565b9150613a7a82613a13565b604082019050919050565b60006020820190508181036000830152613a9e81613a62565b9050919050565b600081905092915050565b6000613abc8385613aa5565b9350613ac98385846133b4565b82840190509392505050565b6000613ae2828486613ab0565b91508190509392505050565b7f4552433732313a207472616e736665722063616c6c6572206973206e6f74206f60008201527f776e6572206e6f7220617070726f766564000000000000000000000000000000602082015250565b6000613b4a603183613023565b9150613b5582613aee565b604082019050919050565b60006020820190508181036000830152613b7981613b3d565b9050919050565b600081905092915050565b50565b6000613b9b600083613b80565b9150613ba682613b8b565b600082019050919050565b6000613bbc82613b8e565b9150819050919050565b7f4661696c656420746f20776974686472617720546f6b656e0000000000000000600082015250565b6000613bfc601883613023565b9150613c0782613bc6565b602082019050919050565b60006020820190508181036000830152613c2b81613bef565b9050919050565b7f4552433732313a206f776e657220717565727920666f72206e6f6e657869737460008201527f656e7420746f6b656e0000000000000000000000000000000000000000000000602082015250565b6000613c8e602983613023565b9150613c9982613c32565b604082019050919050565b60006020820190508181036000830152613cbd81613c81565b9050919050565b7f4552433732313a2062616c616e636520717565727920666f7220746865207a6560008201527f726f206164647265737300000000000000000000000000000000000000000000602082015250565b6000613d20602a83613023565b9150613d2b82613cc4565b604082019050919050565b60006020820190508181036000830152613d4f81613d13565b9050919050565b6000613d628385613023565b9350613d6f8385846133b4565b613d7883613067565b840190509392505050565b60006020820190508181036000830152613d9e818486613d56565b90509392505050565b7f596f7520646f6e2774206861766520656e6f75676820746f6b656e7320666f7260008201527f2070757263686173650000000000000000000000000000000000000000000000602082015250565b6000613e03602983613023565b9150613e0e82613da7565b604082019050919050565b60006020820190508181036000830152613e3281613df6565b9050919050565b7f2e00000000000000000000000000000000000000000000000000000000000000600082015250565b6000613e6f600183613aa5565b9150613e7a82613e39565b600182019050919050565b60008190508160005260206000209050919050565b60008154613ea7816138bd565b613eb18186613aa5565b94506001821660008114613ecc5760018114613edd57613f10565b60ff19831686528186019350613f10565b613ee685613e85565b60005b83811015613f0857815481890152600182019150602081019050613ee9565b838801955050505b50505092915050565b6000613f26828587613ab0565b9150613f3182613e62565b9150613f3d8284613e9a565b9150819050949350505050565b6000613f5582613018565b613f5f8185613aa5565b9350613f6f818560208601613034565b80840191505092915050565b6000613f878286613e9a565b9150613f938285613f4a565b9150613f9f8284613e9a565b9150819050949350505050565b7f7b226e616d65223a202200000000000000000000000000000000000000000000600082015250565b6000613fe2600a83613aa5565b9150613fed82613fac565b600a82019050919050565b7f222c20226465736372697074696f6e223a20224120646f6d61696e206f6e207460008201527f686520467265656c616e6365206e616d652073657276696365222c2022696d6160208201527f6765223a2022646174613a696d6167652f7376672b786d6c3b6261736536342c604082015250565b600061407a606083613aa5565b915061408582613ff8565b606082019050919050565b7f222c226c656e677468223a220000000000000000000000000000000000000000600082015250565b60006140c6600c83613aa5565b91506140d182614090565b600c82019050919050565b7f227d000000000000000000000000000000000000000000000000000000000000600082015250565b6000614112600283613aa5565b915061411d826140dc565b600282019050919050565b600061413382613fd5565b915061413f8286613f4a565b915061414a8261406d565b91506141568285613f4a565b9150614161826140b9565b915061416d8284613f4a565b915061417882614105565b9150819050949350505050565b7f646174613a6170706c69636174696f6e2f6a736f6e3b6261736536342c000000600082015250565b60006141bb601d83613aa5565b91506141c682614185565b601d82019050919050565b60006141dc826141ae565b91506141e88284613f4a565b915081905092915050565b7f45524337323155524953746f726167653a2055524920717565727920666f722060008201527f6e6f6e6578697374656e7420746f6b656e000000000000000000000000000000602082015250565b600061424f603183613023565b915061425a826141f3565b604082019050919050565b6000602082019050818103600083015261427e81614242565b9050919050565b60006142918285613f4a565b915061429d8284613f4a565b91508190509392505050565b7f4e487b7100000000000000000000000000000000000000000000000000000000600052603260045260246000fd5b7f4e487b7100000000000000000000000000000000000000000000000000000000600052601160045260246000fd5b6000614312826130d3565b91507fffffffffffffffffffffffffffffffffffffffffffffffffffffffffffffffff821415614345576143446142d8565b5b600182019050919050565b6000604082019050818103600083015261436a8185613078565b9050818103602083015261437e8184613078565b90509392505050565b7f4552433732313a206f70657261746f7220717565727920666f72206e6f6e657860008201527f697374656e7420746f6b656e0000000000000000000000000000000000000000602082015250565b60006143e3602c83613023565b91506143ee82614387565b604082019050919050565b60006020820190508181036000830152614412816143d6565b9050919050565b7f4552433732313a207472616e736665722066726f6d20696e636f72726563742060008201527f6f776e6572000000000000000000000000000000000000000000000000000000602082015250565b6000614475602583613023565b915061448082614419565b604082019050919050565b600060208201905081810360008301526144a481614468565b9050919050565b7f4552433732313a207472616e7366657220746f20746865207a65726f2061646460008201527f7265737300000000000000000000000000000000000000000000000000000000602082015250565b6000614507602483613023565b9150614512826144ab565b604082019050919050565b60006020820190508181036000830152614536816144fa565b9050919050565b6000614548826130d3565b9150614553836130d3565b925082821015614566576145656142d8565b5b828203905092915050565b600061457c826130d3565b9150614587836130d3565b9250827fffffffffffffffffffffffffffffffffffffffffffffffffffffffffffffffff038211156145bc576145bb6142d8565b5b828201905092915050565b7f4552433732313a20617070726f766520746f2063616c6c657200000000000000600082015250565b60006145fd601983613023565b9150614608826145c7565b602082019050919050565b6000602082019050818103600083015261462c816145f0565b9050919050565b7f4e487b7100000000000000000000000000000000000000000000000000000000600052601260045260246000fd5b600061466d826130d3565b9150614678836130d3565b92508261468857614687614633565b5b828204905092915050565b600061469e826130d3565b91506146a9836130d3565b9250826146b9576146b8614633565b5b828206905092915050565b600060808201905081810360008301526146de8187613078565b905081810360208301526146f28186613078565b905081810360408301526147068185613078565b905061471560608301846134a9565b95945050505050565b6000614729826130d3565b9150614734836130d3565b9250817fffffffffffffffffffffffffffffffffffffffffffffffffffffffffffffffff048311821515161561476d5761476c6142d8565b5b828202905092915050565b7f45524337323155524953746f726167653a2055524920736574206f66206e6f6e60008201527f6578697374656e7420746f6b656e000000000000000000000000000000000000602082015250565b60006147d4602e83613023565b91506147df82614778565b604082019050919050565b60006020820190508181036000830152614803816147c7565b9050919050565b7f4552433732313a207472616e7366657220746f206e6f6e20455243373231526560008201527f63656976657220696d706c656d656e7465720000000000000000000000000000602082015250565b6000614866603283613023565b91506148718261480a565b604082019050919050565b6000602082019050818103600083015261489581614859565b9050919050565b7f4552433732314d657461646174613a2055524920717565727920666f72206e6f60008201527f6e6578697374656e7420746f6b656e0000000000000000000000000000000000602082015250565b60006148f8602f83613023565b91506149038261489c565b604082019050919050565b60006020820190508181036000830152614927816148eb565b9050919050565b600060608201905081810360008301526149488186613078565b905061495760208301856134a9565b81810360408301526149698184613078565b9050949350505050565b600081519050919050565b600082825260208201905092915050565b600061499a82614973565b6149a4818561497e565b93506149b4818560208601613034565b6149bd81613067565b840191505092915050565b60006080820190506149dd6000830187613168565b6149ea6020830186613168565b6149f760408301856134a9565b8181036060830152614a09818461498f565b905095945050505050565b600081519050614a2381612f89565b92915050565b600060208284031215614a3f57614a3e612f53565b5b6000614a4d84828501614a14565b91505092915050565b7f4552433732313a206d696e7420746f20746865207a65726f2061646472657373600082015250565b6000614a8c602083613023565b9150614a9782614a56565b602082019050919050565b60006020820190508181036000830152614abb81614a7f565b9050919050565b7f4552433732313a20746f6b656e20616c7265616479206d696e74656400000000600082015250565b6000614af8601c83613023565b9150614b0382614ac2565b602082019050919050565b60006020820190508181036000830152614b2781614aeb565b905091905056fe5265676973746572696e672025732e2573206f6e2074686520636f6e7472616374207769746820746f6b656e49442025644142434445464748494a4b4c4d4e4f505152535455565758595a6162636465666768696a6b6c6d6e6f707172737475767778797a303132333435363738392b2fa2646970667358221220a9cfd4bec9bdd33c4aeb018150f268d7590722411c5fefe1c58ef079a9f4fe9b64736f6c634300080a00333c73766720786d6c6e733d22687474703a2f2f7777772e77332e6f72672f323030302f737667222077696474683d2232373022206865696768743d22323730222066696c6c3d226e6f6e65223e3c706174682066696c6c3d2275726c282342292220643d224d302030683237307632373048307a222f3e3c646566733e3c66696c7465722069643d22412220636f6c6f722d696e746572706f6c6174696f6e2d66696c746572733d2273524742222066696c746572556e6974733d227573657253706163654f6e55736522206865696768743d22323730222077696474683d22323730223e3c666544726f70536861646f772064783d2230222064793d22312220737464446576696174696f6e3d22322220666c6f6f642d6f7061636974793d222e323235222077696474683d223230302522206865696768743d2232303025222f3e3c2f66696c7465723e3c2f646566733e3c7061746820643d224d37322e3836332034322e393439632d2e3636382d2e3338372d312e3432362d2e35392d322e3139372d2e3539732d312e3532392e3230342d322e3139372e35396c2d31302e30383120362e3033322d362e383520332e3933342d31302e30383120362e303332632d2e3636382e3338372d312e3432362e35392d322e3139372e3539732d312e3532392d2e3230342d322e3139372d2e35396c2d382e3031332d342e37323161342e353220342e35322030203020312d312e3538392d312e363136632d2e3338342d2e3636352d2e3539342d312e3431382d2e3630382d322e313837762d392e3331632d2e3031332d2e3737352e3138352d312e3533382e3537322d322e32303861342e323520342e323520302030203120312e3632352d312e3539356c372e3838342d342e3539632e3636382d2e33383720312e3432362d2e353920322e3139372d2e353973312e3532392e32303420322e3139372e35396c372e38383420342e353961342e353220342e353220302030203120312e35383920312e363136632e3338342e3636352e35393420312e3431382e36303820322e31383776362e3033326c362e38352d342e303635762d362e303332632e3031332d2e3737352d2e3138352d312e3533382d2e3537322d322e32303861342e323520342e32352030203020302d312e3632352d312e3539354c34312e3435362032342e3539632d2e3636382d2e3338372d312e3432362d2e35392d322e3139372d2e3539732d312e3532392e3230342d322e3139372e35396c2d31342e38363420382e36353561342e323520342e32352030203020302d312e36323520312e353935632d2e3338372e36372d2e35383520312e3433342d2e35373220322e3230387631372e343431632d2e3031332e3737352e31383520312e3533382e35373220322e32303861342e323520342e323520302030203020312e36323520312e3539356c31342e38363420382e363535632e3636382e33383720312e3432362e353920322e3139372e353973312e3532392d2e32303420322e3139372d2e35396c31302e3038312d352e39303120362e38352d342e3036352031302e3038312d352e393031632e3636382d2e33383720312e3432362d2e353920322e3139372d2e353973312e3532392e32303420322e3139372e35396c372e38383420342e353961342e353220342e353220302030203120312e35383920312e363136632e3338342e3636352e35393420312e3431382e36303820322e31383776392e333131632e3031332e3737352d2e31383520312e3533382d2e35373220322e32303861342e323520342e32352030203020312d312e36323520312e3539356c2d372e38383420342e373231632d2e3636382e3338372d312e3432362e35392d322e3139372e3539732d312e3532392d2e3230342d322e3139372d2e35396c2d372e3838342d342e353961342e353220342e35322030203020312d312e3538392d312e363136632d2e3338352d2e3636352d2e3539342d312e3431382d2e3630382d322e313837762d362e3033326c2d362e383520342e30363576362e303332632d2e3031332e3737352e31383520312e3533382e35373220322e32303861342e323520342e323520302030203020312e36323520312e3539356c31342e38363420382e363535632e3636382e33383720312e3432362e353920322e3139372e353973312e3532392d2e32303420322e3139372d2e35396c31342e3836342d382e363535632e3635372d2e33393420312e3230342d2e393520312e3538392d312e363136732e3539342d312e3431382e3630392d322e3138375635352e353338632e3031332d2e3737352d2e3138352d312e3533382d2e3537322d322e32303861342e323520342e32352030203020302d312e3632352d312e3539356c2d31342e3939332d382e3738367a222066696c6c3d2223666666222f3e3c646566733e3c6c696e6561724772616469656e742069643d2242222078313d2230222079313d2230222078323d22323730222079323d2232373022206772616469656e74556e6974733d227573657253706163654f6e557365223e3c73746f702073746f702d636f6c6f723d2223636235656565222f3e3c73746f70206f66667365743d2231222073746f702d636f6c6f723d2223306364376534222073746f702d6f7061636974793d222e3939222f3e3c2f6c696e6561724772616469656e743e3c2f646566733e3c7465787420783d2233322e352220793d223233312220666f6e742d73697a653d223237222066696c6c3d2223666666222066696c7465723d2275726c282341292220666f6e742d66616d696c793d22506c7573204a616b617274612053616e732c44656a6156752053616e732c4e6f746f20436f6c6f7220456d6f6a692c4170706c6520436f6c6f7220456d6f6a692c73616e732d73657269662220666f6e742d7765696768743d22626f6c64223e",
    "linkReferences": {},
    "deployedLinkReferences": {}
}